{
  "abi": [
    {
      "inputs": [],
      "stateMutability": "nonpayable",
      "type": "constructor"
    },
    {
      "inputs": [
        {
          "internalType": "address",
          "name": "token",
          "type": "address"
        }
      ],
      "name": "getPrice",
      "outputs": [
        {
          "internalType": "uint256",
          "name": "",
          "type": "uint256"
        }
      ],
      "stateMutability": "view",
      "type": "function"
    },
    {
      "inputs": [],
      "name": "operator",
      "outputs": [
        {
          "internalType": "address",
          "name": "",
          "type": "address"
        }
      ],
      "stateMutability": "view",
      "type": "function"
    },
    {
      "inputs": [
        {
          "internalType": "address",
          "name": "token",
          "type": "address"
        },
        {
          "internalType": "uint256",
          "name": "price",
          "type": "uint256"
        }
      ],
      "name": "setPrice",
      "outputs": [],
      "stateMutability": "nonpayable",
      "type": "function"
    }
  ],
  "bytecode": {
    "object": "0x608060405234801561001057600080fd5b50600080546001600160a01b03191633179055610247806100326000396000f3fe608060405234801561001057600080fd5b50600436106100405760003560e01c8062e4768b1461004557806341976e091461005a578063570ca73514610080575b600080fd5b6100586100533660046101c5565b6100ab565b005b61006d6100683660046101ef565b610126565b6040519081526020015b60405180910390f35b600054610093906001600160a01b031681565b6040516001600160a01b039091168152602001610077565b6000546001600160a01b0316331461010a5760405162461bcd60e51b815260206004820152601f60248201527f6f6e6c79206f70657261746f722063616e20736574207468652070726963650060448201526064015b60405180910390fd5b6001600160a01b03909116600090815260016020526040902055565b6001600160a01b038116600090815260016020526040812054810361018d5760405162461bcd60e51b815260206004820152601860248201527f7468652070726963652063616e6e6f74206265207a65726f00000000000000006044820152606401610101565b506001600160a01b031660009081526001602052604090205490565b80356001600160a01b03811681146101c057600080fd5b919050565b600080604083850312156101d857600080fd5b6101e1836101a9565b946020939093013593505050565b60006020828403121561020157600080fd5b61020a826101a9565b939250505056fea2646970667358221220495d92f3dccf5bae75390d3605af93c3dadc79fcfb3b9a8e8ac1557a3a48575764736f6c63430008100033",
    "linkReferences": {}
  },
  "methodIdentifiers": {
    "getPrice(address)": "41976e09",
    "operator()": "570ca735",
    "setPrice(address,uint256)": "00e4768b"
  },
  "id": 13
}