{
  "abi": [
    {
      "inputs": [
        {
          "internalType": "address",
          "name": "_usdc_addr",
          "type": "address"
        }
      ],
      "stateMutability": "nonpayable",
      "type": "constructor"
    },
    {
      "inputs": [
        {
          "internalType": "address",
          "name": "tokenAddress",
          "type": "address"
        },
        {
          "internalType": "uint256",
          "name": "amount",
          "type": "uint256"
        }
      ],
      "name": "borrow",
      "outputs": [],
      "stateMutability": "nonpayable",
      "type": "function"
    },
    {
      "inputs": [
        {
          "internalType": "address",
          "name": "tokenAddress",
          "type": "address"
        },
        {
          "internalType": "uint256",
          "name": "amount",
          "type": "uint256"
        }
      ],
      "name": "deposit",
      "outputs": [],
      "stateMutability": "payable",
      "type": "function"
    },
    {
      "inputs": [
        {
          "internalType": "address",
          "name": "user",
          "type": "address"
        },
        {
          "internalType": "address",
          "name": "tokenAddress",
          "type": "address"
        },
        {
          "internalType": "uint256",
          "name": "amount",
          "type": "uint256"
        }
      ],
      "name": "liquidate",
      "outputs": [],
      "stateMutability": "nonpayable",
      "type": "function"
    },
    {
      "inputs": [
        {
          "internalType": "address",
          "name": "",
          "type": "address"
        }
      ],
      "name": "loan_list",
      "outputs": [
        {
          "internalType": "uint256",
          "name": "time",
          "type": "uint256"
        },
        {
          "internalType": "uint256",
          "name": "loan_value",
          "type": "uint256"
        },
        {
          "internalType": "uint256",
          "name": "bal_eth",
          "type": "uint256"
        },
        {
          "internalType": "uint256",
          "name": "bal_usdc",
          "type": "uint256"
        },
        {
          "internalType": "uint256",
          "name": "guarantee",
          "type": "uint256"
        }
      ],
      "stateMutability": "view",
      "type": "function"
    },
    {
      "inputs": [],
      "name": "oracle",
      "outputs": [
        {
          "internalType": "contract DreamOracle",
          "name": "",
          "type": "address"
        }
      ],
      "stateMutability": "view",
      "type": "function"
    },
    {
      "inputs": [
        {
          "internalType": "uint256",
          "name": "value",
          "type": "uint256"
        },
        {
          "internalType": "address",
          "name": "_token",
          "type": "address"
        }
      ],
      "name": "oracle_set",
      "outputs": [],
      "stateMutability": "nonpayable",
      "type": "function"
    },
    {
      "inputs": [
        {
          "internalType": "address",
          "name": "tokenAddress",
          "type": "address"
        },
        {
          "internalType": "uint256",
          "name": "amount",
          "type": "uint256"
        }
      ],
      "name": "repay",
      "outputs": [],
      "stateMutability": "nonpayable",
      "type": "function"
    },
    {
      "inputs": [
        {
          "internalType": "address",
          "name": "tokenAddress",
          "type": "address"
        },
        {
          "internalType": "uint256",
          "name": "amount",
          "type": "uint256"
        }
      ],
      "name": "withdraw",
      "outputs": [],
      "stateMutability": "nonpayable",
      "type": "function"
    }
  ],
  "bytecode": {
    "object": "0x6080604052604051620000129062000119565b604051809103906000f0801580156200002f573d6000803e3d6000fd5b50600080546001600160a01b0319166001600160a01b03929092169190911790553480156200005d57600080fd5b5060405162001b7238038062001b72833981016040819052620000809162000127565b60038054336001600160a01b031991821617909155600280549091166001600160a01b0383811691821790925560005460405162e4768b60e01b8152600481019290925267016345785d8a000060248301529091169062e4768b90604401600060405180830381600087803b158015620000f957600080fd5b505af11580156200010e573d6000803e3d6000fd5b505050505062000159565b61027980620018f983390190565b6000602082840312156200013a57600080fd5b81516001600160a01b03811681146200015257600080fd5b9392505050565b61179080620001696000396000f3fe60806040526004361061007b5760003560e01c806373cba2cc1161004e57806373cba2cc146100f55780637dc0d1d01461016b578063a2a65a3d146101a3578063f3fef3a3146101c357600080fd5b806322867d781461008057806326c01303146100a257806347e7ef24146100c25780634b8a3529146100d5575b600080fd5b34801561008c57600080fd5b506100a061009b366004611593565b6101e3565b005b3480156100ae57600080fd5b506100a06100bd3660046115bd565b61056f565b6100a06100d0366004611593565b610a9c565b3480156100e157600080fd5b506100a06100f0366004611593565b610d28565b34801561010157600080fd5b5061013e6101103660046115f9565b6001602081905260009182526040909120805491810154600282015460038301546004909301549192909185565b604080519586526020860194909452928401919091526060830152608082015260a0015b60405180910390f35b34801561017757600080fd5b5060005461018b906001600160a01b031681565b6040516001600160a01b039091168152602001610162565b3480156101af57600080fd5b506100a06101be36600461161b565b611014565b3480156101cf57600080fd5b506100a06101de366004611593565b6110c2565b6002546001600160a01b038381169116146101fd57600080fd5b600080546002546040516341976e0960e01b81526001600160a01b0391821660048201529116906341976e0990602401602060405180830381865afa15801561024a573d6000803e3d6000fd5b505050506040513d601f19601f8201168201806040525081019061026e9190611647565b33600090815260016020526040812060030154919250901515806102a45750336000908152600160208190526040909120015415155b6102f55760405162461bcd60e51b815260206004820152601960248201527f75736463206f72206c6f616e20616d6f756e7420636865636b0000000000000060448201526064015b60405180910390fd5b6102ff33846112eb565b6103099084611676565b33600090815260016020526040902060030154101561035a5760405162461bcd60e51b815260206004820152600d60248201526c616d6f756e7420636865636b7360981b60448201526064016102ec565b3360009081526001602081905260409091200154831061043d57336000818152600160208190526040909120015461039291906112eb565b33600090815260016020819052604090912001546103b09190611676565b33600090815260016020526040812060030180549091906103d2908490611689565b909155505033600081815260016020819052604080832060048101805491909301849055918390555190935083156108fc0291849190818181858888f19350505050158015610425573d6000803e3d6000fd5b5061043861043333856112eb565b61136f565b610569565b61044733846112eb565b6104519084611676565b3360009081526001602052604081206003018054909190610473908490611689565b9091555050336000908152600160208190526040909120600481015491015490915061049f848361169c565b6104a991906116bb565b33600090815260016020526040812060040180549091906104cb908490611689565b909155505033600081815260016020819052604090912001546108fc906104f2868561169c565b6104fc91906116bb565b6040518115909202916000818181858888f19350505050158015610524573d6000803e3d6000fd5b503360009081526001602081905260408220018054859290610547908490611689565b90915550610557905033846112eb565b156105695761056961043333856112eb565b50505050565b6002546001600160a01b038381169116146105c05760405162461bcd60e51b81526020600482015260116024820152706e6f7420746f6b656e206164647265737360781b60448201526064016102ec565b600080546002546040516341976e0960e01b81526001600160a01b0391821660048201529116906341976e0990602401602060405180830381865afa15801561060d573d6000803e3d6000fd5b505050506040513d601f19601f820116820180604052508101906106319190611647565b6001600160a01b038516600090815260016020819052604090912001546106599086906112eb565b6001600160a01b038616600090815260016020819052604090912001546106809190611676565b61068b90600461169c565b610695919061169c565b90506106a26003826116bb565b6001600160a01b03851660009081526001602052604090206004015411156107205760405162461bcd60e51b815260206004820152602b60248201527f746f6b656e4164647265737320436865636b206f722067756172616e7465652060448201526a76616c756520636865636b60a81b60648201526084016102ec565b336000908152600160205260409020600301548211156107525760405162461bcd60e51b81526004016102ec906116dd565b6001600160a01b0384166000908152600160208190526040822001546107799033906112eb565b6001600160a01b038616600090815260016020819052604090912001546107a09190611676565b6001600160a01b0386166000908152600160205260408120600401549192508282111561084e576000546002546040516341976e0960e01b81526001600160a01b0391821660048201529116906341976e0990602401602060405180830381865afa158015610813573d6000803e3d6000fd5b505050506040513d601f19601f820116820180604052508101906108379190611647565b610841908461169c565b61084b9083611689565b90505b6000546002546040516341976e0960e01b81526001600160a01b039182166004820152849291909116906341976e0990602401602060405180830381865afa15801561089e573d6000803e3d6000fd5b505050506040513d601f19601f820116820180604052508101906108c29190611647565b6108cc908761169c565b1061092b5733600090815260016020526040812060030180548592906108f3908490611689565b9091555050604051339083156108fc029084906000818181858888f19350505050158015610925573d6000803e3d6000fd5b50610a93565b6000546002546040516341976e0960e01b81526001600160a01b0391821660048201529116906341976e0990602401602060405180830381865afa158015610977573d6000803e3d6000fd5b505050506040513d601f19601f8201168201806040525081019061099b9190611647565b6109a5908461169c565b6109af868361169c565b6109b991906116bb565b6109c39086611689565b33600090815260016020526040812060030180549091906109e5908490611689565b90915550506000546002546040516341976e0960e01b81526001600160a01b03918216600482015233926108fc9216906341976e0990602401602060405180830381865afa158015610a3b573d6000803e3d6000fd5b505050506040513d601f19601f82011682018060405250810190610a5f9190611647565b610a69908861169c565b6040518115909202916000818181858888f19350505050158015610a91573d6000803e3d6000fd5b505b50505050505050565b306001600160a01b0383161480610ac057506002546001600160a01b038381169116145b610b005760405162461bcd60e51b81526020600482015260116024820152706e6f7420746f6b656e206164647265737360781b60448201526064016102ec565b306001600160a01b03831603610b3d573360009081526001602052604081206002018054349290610b32908490611676565b90915550610d249050565b6040516370a0823160e01b815233600482015260009082906001600160a01b038516906370a0823190602401602060405180830381865afa158015610b86573d6000803e3d6000fd5b505050506040513d601f19601f82011682018060405250810190610baa9190611647565b1015610be75760405162461bcd60e51b815260206004820152600c60248201526b62616c616e6365206c65737360a01b60448201526064016102ec565b6040516323b872dd60e01b8152336004820152306024820152604481018390526001600160a01b038416906323b872dd906064016020604051808303816000875af1158015610c3a573d6000803e3d6000fd5b505050506040513d601f19601f82011682018060405250810190610c5e9190611709565b503360009081526001602052604081206003018054849290610c81908490611676565b90915550600090505b600454811015610cd95760048181548110610ca757610ca761172b565b6000918252602090912001546001600160a01b03163303610cc757600191505b80610cd181611741565b915050610c8a565b5080610d2257600480546001810182556000919091527f8a35acfbc15ff81a39ae7d344fd709f28e8600b4aa8c65c6b64bfe7fe36bd19b0180546001600160a01b031916331790555b505b5050565b6002546001600160a01b03838116911614610d7b5760405162461bcd60e51b8152602060048201526013602482015272616464726573732076616c756520636865636b60681b60448201526064016102ec565b6040516370a0823160e01b815230600482015281906001600160a01b038416906370a0823190602401602060405180830381865afa158015610dc1573d6000803e3d6000fd5b505050506040513d601f19601f82011682018060405250810190610de59190611647565b1015610e275760405162461bcd60e51b81526020600482015260116024820152706c616e64696e6720706f6f6c206c65737360781b60448201526064016102ec565b600080546002546040516341976e0960e01b81526001600160a01b0391821660048201529116906341976e0990602401602060405180830381865afa158015610e74573d6000803e3d6000fd5b505050506040513d601f19601f82011682018060405250810190610e989190611647565b9050610ea4818361169c565b610eaf90600261169c565b336000908152600160205260409020600201541015610f045760405162461bcd60e51b815260206004820152601160248201527019dd585c985b9d19594819195c1bdcda5d607a1b60448201526064016102ec565b610f0e818361169c565b610f1990600261169c565b33600090815260016020526040902060040155610f36818361169c565b610f4190600261169c565b3360009081526001602052604081206002018054909190610f63908490611689565b90915550503360009081526001602081905260408220018054849290610f8a908490611676565b909155505033600081815260016020526040908190204290555163a9059cbb60e01b81526004810191909152602481018390526001600160a01b0384169063a9059cbb906044016020604051808303816000875af1158015610ff0573d6000803e3d6000fd5b505050506040513d601f19601f820116820180604052508101906105699190611709565b6003546001600160a01b0316331461105a5760405162461bcd60e51b81526020600482015260096024820152683737ba1037bbb732b960b91b60448201526064016102ec565b60005460405162e4768b60e01b81526001600160a01b038381166004830152602482018590529091169062e4768b90604401600060405180830381600087803b1580156110a657600080fd5b505af11580156110ba573d6000803e3d6000fd5b505050505050565b6001600160a01b0382163014806110e657506002546001600160a01b038381169116145b6110ef57600080fd5b6001600160a01b0382163014801561111857503360009081526001602081905260409091200154155b1561121d573360009081526001602052604090206002015481111561114f5760405162461bcd60e51b81526004016102ec906116dd565b6000546002546040516341976e0960e01b81526001600160a01b0391821660048201529116906341976e0990602401602060405180830381865afa15801561119b573d6000803e3d6000fd5b505050506040513d601f19601f820116820180604052508101906111bf9190611647565b6111c9908261169c565b33600090815260016020526040812060020180549091906111eb908490611689565b9091555050604051339082156108fc029083906000818181858888f19350505050158015610d22573d6000803e3d6000fd5b3360009081526001602052604090206003015481111561124f5760405162461bcd60e51b81526004016102ec906116dd565b3360009081526001602052604081206003018054839290611271908490611689565b909155505060025460405163a9059cbb60e01b8152336004820152602481018390526001600160a01b039091169063a9059cbb906044016020604051808303816000875af11580156112c7573d6000803e3d6000fd5b505050506040513d601f19601f82011682018060405250810190610d229190611709565b6001600160a01b03821660009081526001602052604081205482919062015180906113169042611689565b61132091906116bb565b905060005b8181101561135a576103e861133c846103e961169c565b61134691906116bb565b92508061135281611741565b915050611325565b506113658383611689565b9150505b92915050565b6000805b6004548110156115465760016000600483815481106113945761139461172b565b60009182526020808320909101546001600160a01b0316835282019290925260400181206003015490036113ca57809150611534565b600254600480546001600160a01b039092169163a9059cbb9190849081106113f4576113f461172b565b6000918252602090912001546002546040516370a0823160e01b81523060048201526001600160a01b0392831692909116906370a0823190602401602060405180830381865afa15801561144c573d6000803e3d6000fd5b505050506040513d601f19601f820116820180604052508101906114709190611647565b60016000600487815481106114875761148761172b565b60009182526020808320909101546001600160a01b031683528201929092526040019020600301546114b991906116bb565b6114c3908761169c565b6040516001600160e01b031960e085901b1681526001600160a01b03909216600483015260248201526044016020604051808303816000875af115801561150e573d6000803e3d6000fd5b505050506040513d601f19601f820116820180604052508101906115329190611709565b505b8061153e81611741565b915050611373565b506004818154811061155a5761155a61172b565b600091825260209091200180546001600160a01b03191690555050565b80356001600160a01b038116811461158e57600080fd5b919050565b600080604083850312156115a657600080fd5b6115af83611577565b946020939093013593505050565b6000806000606084860312156115d257600080fd5b6115db84611577565b92506115e960208501611577565b9150604084013590509250925092565b60006020828403121561160b57600080fd5b61161482611577565b9392505050565b6000806040838503121561162e57600080fd5b8235915061163e60208401611577565b90509250929050565b60006020828403121561165957600080fd5b5051919050565b634e487b7160e01b600052601160045260246000fd5b8082018082111561136957611369611660565b8181038181111561136957611369611660565b60008160001904831182151516156116b6576116b6611660565b500290565b6000826116d857634e487b7160e01b600052601260045260246000fd5b500490565b602080825260129082015271616d6f756e742076616c756520636865636b60701b604082015260600190565b60006020828403121561171b57600080fd5b8151801515811461161457600080fd5b634e487b7160e01b600052603260045260246000fd5b60006001820161175357611753611660565b506001019056fea26469706673582212201c285b527b500f278ab3042f6e1e45519700dccf86b8234aa183b321ae6267dd64736f6c63430008100033608060405234801561001057600080fd5b50600080546001600160a01b03191633179055610247806100326000396000f3fe608060405234801561001057600080fd5b50600436106100405760003560e01c8062e4768b1461004557806341976e091461005a578063570ca73514610080575b600080fd5b6100586100533660046101c5565b6100ab565b005b61006d6100683660046101ef565b610126565b6040519081526020015b60405180910390f35b600054610093906001600160a01b031681565b6040516001600160a01b039091168152602001610077565b6000546001600160a01b0316331461010a5760405162461bcd60e51b815260206004820152601f60248201527f6f6e6c79206f70657261746f722063616e20736574207468652070726963650060448201526064015b60405180910390fd5b6001600160a01b03909116600090815260016020526040902055565b6001600160a01b038116600090815260016020526040812054810361018d5760405162461bcd60e51b815260206004820152601860248201527f7468652070726963652063616e6e6f74206265207a65726f00000000000000006044820152606401610101565b506001600160a01b031660009081526001602052604090205490565b80356001600160a01b03811681146101c057600080fd5b919050565b600080604083850312156101d857600080fd5b6101e1836101a9565b946020939093013593505050565b60006020828403121561020157600080fd5b61020a826101a9565b939250505056fea26469706673582212205356a8cb1d4871a61fe2927dd92147e0ab8c75d1d1002f95efc8552462ae289264736f6c63430008100033",
    "linkReferences": {}
  },
  "methodIdentifiers": {
    "borrow(address,uint256)": "4b8a3529",
    "deposit(address,uint256)": "47e7ef24",
    "liquidate(address,address,uint256)": "26c01303",
    "loan_list(address)": "73cba2cc",
    "oracle()": "7dc0d1d0",
    "oracle_set(uint256,address)": "a2a65a3d",
    "repay(address,uint256)": "22867d78",
    "withdraw(address,uint256)": "f3fef3a3"
  },
  "id": 17
}