{
  "abi": [
    {
      "inputs": [
        {
          "internalType": "contract IPriceOracle",
          "name": "_oracle",
          "type": "address"
        },
        {
          "internalType": "address",
          "name": "_usdc",
          "type": "address"
        }
      ],
      "stateMutability": "nonpayable",
      "type": "constructor"
    },
    {
      "inputs": [
        {
          "internalType": "address",
          "name": "",
          "type": "address"
        },
        {
          "internalType": "uint256",
          "name": "",
          "type": "uint256"
        }
      ],
      "name": "block_snap",
      "outputs": [
        {
          "internalType": "uint256",
          "name": "",
          "type": "uint256"
        }
      ],
      "stateMutability": "view",
      "type": "function"
    },
    {
      "inputs": [
        {
          "internalType": "address",
          "name": "token",
          "type": "address"
        },
        {
          "internalType": "uint256",
          "name": "amount",
          "type": "uint256"
        }
      ],
      "name": "borrow",
      "outputs": [],
      "stateMutability": "nonpayable",
      "type": "function"
    },
    {
      "inputs": [
        {
          "internalType": "address",
          "name": "",
          "type": "address"
        }
      ],
      "name": "borrowers",
      "outputs": [
        {
          "internalType": "uint256",
          "name": "loan",
          "type": "uint256"
        },
        {
          "internalType": "uint256",
          "name": "init_loan",
          "type": "uint256"
        },
        {
          "internalType": "uint256",
          "name": "guarantee",
          "type": "uint256"
        },
        {
          "internalType": "uint256",
          "name": "entry_point",
          "type": "uint256"
        }
      ],
      "stateMutability": "view",
      "type": "function"
    },
    {
      "inputs": [
        {
          "internalType": "address",
          "name": "token",
          "type": "address"
        },
        {
          "internalType": "uint256",
          "name": "amount",
          "type": "uint256"
        }
      ],
      "name": "deposit",
      "outputs": [],
      "stateMutability": "payable",
      "type": "function"
    },
    {
      "inputs": [
        {
          "internalType": "address",
          "name": "token",
          "type": "address"
        }
      ],
      "name": "getAccruedSupplyAmount",
      "outputs": [
        {
          "internalType": "uint256",
          "name": "",
          "type": "uint256"
        }
      ],
      "stateMutability": "nonpayable",
      "type": "function"
    },
    {
      "inputs": [
        {
          "internalType": "address",
          "name": "token",
          "type": "address"
        }
      ],
      "name": "initializeLendingProtocol",
      "outputs": [],
      "stateMutability": "payable",
      "type": "function"
    },
    {
      "inputs": [],
      "name": "lending_info",
      "outputs": [
        {
          "internalType": "uint256",
          "name": "loan",
          "type": "uint256"
        },
        {
          "internalType": "uint256",
          "name": "init_loan",
          "type": "uint256"
        },
        {
          "internalType": "uint256",
          "name": "entry_point",
          "type": "uint256"
        }
      ],
      "stateMutability": "view",
      "type": "function"
    },
    {
      "inputs": [
        {
          "internalType": "address",
          "name": "borrower_addr",
          "type": "address"
        },
        {
          "internalType": "address",
          "name": "token",
          "type": "address"
        },
        {
          "internalType": "uint256",
          "name": "amount",
          "type": "uint256"
        }
      ],
      "name": "liquidate",
      "outputs": [],
      "stateMutability": "nonpayable",
      "type": "function"
    },
    {
      "inputs": [
        {
          "internalType": "address",
          "name": "token",
          "type": "address"
        },
        {
          "internalType": "uint256",
          "name": "amount",
          "type": "uint256"
        }
      ],
      "name": "repay",
      "outputs": [],
      "stateMutability": "nonpayable",
      "type": "function"
    },
    {
      "inputs": [
        {
          "internalType": "address",
          "name": "",
          "type": "address"
        }
      ],
      "name": "stakers",
      "outputs": [
        {
          "internalType": "uint256",
          "name": "stake",
          "type": "uint256"
        },
        {
          "internalType": "uint256",
          "name": "yield",
          "type": "uint256"
        },
        {
          "internalType": "uint256",
          "name": "entry_point",
          "type": "uint256"
        },
        {
          "internalType": "uint256",
          "name": "before_yield",
          "type": "uint256"
        },
        {
          "internalType": "uint256",
          "name": "accrued_snap",
          "type": "uint256"
        }
      ],
      "stateMutability": "view",
      "type": "function"
    },
    {
      "inputs": [
        {
          "internalType": "address",
          "name": "",
          "type": "address"
        },
        {
          "internalType": "uint256",
          "name": "",
          "type": "uint256"
        }
      ],
      "name": "token_lp",
      "outputs": [
        {
          "internalType": "uint256",
          "name": "",
          "type": "uint256"
        }
      ],
      "stateMutability": "view",
      "type": "function"
    },
    {
      "inputs": [
        {
          "internalType": "address",
          "name": "token",
          "type": "address"
        },
        {
          "internalType": "uint256",
          "name": "amount",
          "type": "uint256"
        }
      ],
      "name": "withdraw",
      "outputs": [],
      "stateMutability": "nonpayable",
      "type": "function"
    }
  ],
  "bytecode": {
    "object": "0x60806040523480156200001157600080fd5b506040516200278e3803806200278e83398101604081905262000034916200028d565b600980546001600160a01b03199081166001600160a01b0385811691909117909255600a805490911691831691909117905562000088641748771e3a64174876e800620000b1602090811b62001c2017901c565b600b80546001600160801b0319166001600160801b039290921691909117905550620002f89050565b600081600003620000c157600080fd5b6000620000cf8484620000f6565b905060016001607f1b036001600160801b0382161115620000ef57600080fd5b9392505050565b6000816000036200010657600080fd5b60006001600160c01b038411620001365782604085901b816200012d576200012d620002cc565b0490506200025f565b60c084811c640100000000811062000150576020918201911c5b62010000811062000163576010918201911c5b610100811062000175576008918201911c5b6010811062000186576004918201911c5b6004811062000197576002918201911c5b60028110620001a7576001820191505b60bf820360018603901c6001018260ff0387901b81620001cb57620001cb620002cc565b0492506001600160801b03831115620001e357600080fd5b608085901c83026001600160801b038616840260c088901c604089901b8281101562000210576001820391505b608084901b9290038281101562000228576001820391505b829003608084901c8214620002415762000241620002e2565b888181620002535762000253620002cc565b04870196505050505050505b6001600160801b03811115620000ef57600080fd5b6001600160a01b03811681146200028a57600080fd5b50565b60008060408385031215620002a157600080fd5b8251620002ae8162000274565b6020840151909250620002c18162000274565b809150509250929050565b634e487b7160e01b600052601260045260246000fd5b634e487b7160e01b600052600160045260246000fd5b61248680620003086000396000f3fe6080604052600436106100a75760003560e01c80638f1e9779116100645780638f1e97791461018e5780639168ae72146101a1578063bf5d50c414610214578063f2026a2014610278578063f3fef3a314610298578063f6525ceb146102b857600080fd5b80631cc48d29146100ac57806322867d78146100eb57806326c013031461010d57806347e7ef241461012d5780634b8a35291461014057806353415e4414610160575b600080fd5b3480156100b857600080fd5b506006546007546008546100cb92919083565b604080519384526020840192909252908201526060015b60405180910390f35b3480156100f757600080fd5b5061010b610106366004612236565b6102d8565b005b34801561011957600080fd5b5061010b610128366004612260565b6105a2565b61010b61013b366004612236565b610c3f565b34801561014c57600080fd5b5061010b61015b366004612236565b610e95565b34801561016c57600080fd5b5061018061017b36600461229c565b611186565b6040519081526020016100e2565b61010b61019c36600461229c565b61149b565b3480156101ad57600080fd5b506101ec6101bc36600461229c565b60036020819052600091825260409091208054600182015460028301549383015460049093015491939092909185565b604080519586526020860194909452928401919091526060830152608082015260a0016100e2565b34801561022057600080fd5b5061025861022f36600461229c565b600260208190526000918252604090912080546001820154928201546003909201549092919084565b6040805194855260208501939093529183015260608201526080016100e2565b34801561028457600080fd5b50610180610293366004612236565b61155d565b3480156102a457600080fd5b5061010b6102b3366004612236565b61158e565b3480156102c457600080fd5b506101806102d3366004612236565b611c04565b600a546001600160a01b0383811691161461030e5760405162461bcd60e51b8152600401610305906122b7565b60405180910390fd5b61031733611c63565b33600090815260026020526040902054811061036b5760405162461bcd60e51b8152602060048201526013602482015272616d6f756e7420697320746f6f206c6172676560681b6044820152606401610305565b3360009081526002602052604081206001810154905461038b91906122fa565b33600090815260026020526040812060010154919250906103ad908490612327565b6103b79083612327565b600a549091506001600160a01b03166323b872dd33306103d78588612349565b6040518463ffffffff1660e01b81526004016103f593929190612361565b6020604051808303816000875af1158015610414573d6000803e3d6000fd5b505050506040513d601f19601f820116820180604052508101906104389190612385565b6104845760405162461bcd60e51b815260206004820152601960248201527f626f72726f77207472616e7366657246726f6d206572726f72000000000000006044820152606401610305565b600061049082856122fa565b336000908152600260205260409020600101546104b590670de0b6b3a76400006123a7565b6104bf9190612327565b336000908152600260208190526040822001549192509082906104ea90670de0b6b3a76400006123a7565b6104f49190612327565b90506105008386612349565b336000908152600260205260408120805490919061051f9084906122fa565b9091555061052f905084866122fa565b33600090815260026020526040812060010180549091906105519084906122fa565b9091555061056190508386612349565b600680546000906105739084906122fa565b90915550610583905084866122fa565b600780546000906105959084906122fa565b9091555050505050505050565b6105ab83611c63565b600954600a546040516341976e0960e01b81526001600160a01b03918216600482015260009291909116906341976e0990602401602060405180830381865afa1580156105fc573d6000803e3d6000fd5b505050506040513d601f19601f8201168201806040525081019061062091906123c6565b6009546040516341976e0960e01b81526000600480830191909152916001600160a01b0316906341976e0990602401602060405180830381865afa15801561066c573d6000803e3d6000fd5b505050506040513d601f19601f8201168201806040525081019061069091906123c6565b6001600160a01b038716600090815260026020819052604090912001546106c090670de0b6b3a764000090612327565b6106ca91906123a7565b6106dc906729a2241af62c00006123a7565b6106e69190612327565b6106f09190612327565b6001600160a01b0385166000908152600260205260409020549091506107178360046123a7565b111561075a5760405162461bcd60e51b81526020600482015260126024820152716f7468657277697365206f6e6c792032352560701b6044820152606401610305565b6009546040516341976e0960e01b8152600060048201526001600160a01b03909116906341976e0990602401602060405180830381865afa1580156107a3573d6000803e3d6000fd5b505050506040513d601f19601f820116820180604052508101906107c791906123c6565b6001600160a01b038516600090815260026020819052604090912001546107ef9060036123a7565b6107f991906123a7565b6009546040516341976e0960e01b81526001600160a01b038681166004830152909116906341976e0990602401602060405180830381865afa158015610843573d6000803e3d6000fd5b505050506040513d601f19601f8201168201806040525081019061086791906123c6565b6001600160a01b03861660009081526002602052604090205461088b9060046123a7565b61089591906123a7565b10156108a057600080fd5b6001600160a01b0384166000908152600260205260409020548211156109415760405162461bcd60e51b815260206004820152604a60248201527f416e20616d6f756e742067726561746572207468616e2074686520616d6f756e60448201527f7420746861742063616e206265206c69717569646174656420686173206265656064820152691b881c9958d95a5d995960b21b608482015260a401610305565b6040516323b872dd60e01b81526001600160a01b038416906323b872dd9061097190339030908790600401612361565b6020604051808303816000875af1158015610990573d6000803e3d6000fd5b505050506040513d601f19601f820116820180604052508101906109b49190612385565b610a005760405162461bcd60e51b815260206004820152601e60248201527f6c6971756964617465203a207472616e7366657246726f6d204572726f7200006044820152606401610305565b6001600160a01b038416600090815260026020526040812060018101549054610a2991906122fa565b6001600160a01b038616600090815260026020526040812080549293508592909190610a569084906122fa565b909155505060068054849190600090610a709084906122fa565b909155506000905081841115610c3757610a8a82856122fa565b6001600160a01b03871660009081526002602052604081206001018054909190610ab59084906122fa565b90915550610ac5905082856122fa565b60078054600090610ad79084906122fa565b90915550506009546040516341976e0960e01b8152600060048201526001600160a01b03909116906341976e0990602401602060405180830381865afa158015610b25573d6000803e3d6000fd5b505050506040513d601f19601f82011682018060405250810190610b4991906123c6565b600954600a546040516341976e0960e01b81526001600160a01b0391821660048201529116906341976e0990602401602060405180830381865afa158015610b95573d6000803e3d6000fd5b505050506040513d601f19601f82011682018060405250810190610bb991906123c6565b610bc390866123a7565b610bcd9190612327565b9050610bd881611d04565b6001600160a01b03861660009081526002602081905260408220018054839290610c039084906122fa565b9091555050604051339082156108fc029083906000818181858888f19350505050158015610c35573d6000803e3d6000fd5b505b505050505050565b600a546001600160a01b0383811691161480610c6257506001600160a01b038216155b610c7e5760405162461bcd60e51b8152600401610305906122b7565b6001600160a01b038216158015610c955750600034115b15610d0e57803414610ce15760405162461bcd60e51b81526020600482015260156024820152744465706f7369743a20616d6f756e7420636865636b60581b6044820152606401610305565b3360009081526002602081905260408220018054839290610d03908490612349565b90915550610e919050565b60016000541115610dc857600a546040516370a0823160e01b81523060048201526001600160a01b03909116906370a0823190602401602060405180830381865afa158015610d61573d6000803e3d6000fd5b505050506040513d601f19601f82011682018060405250810190610d8591906123c6565b6001600160a01b03831660009081526005602052604081209054610dab906001906122fa565b81548110610dbb57610dbb6123df565b6000918252602090912001555b6040516323b872dd60e01b81526001600160a01b038316906323b872dd90610df890339030908690600401612361565b6020604051808303816000875af1158015610e17573d6000803e3d6000fd5b505050506040513d601f19601f82011682018060405250810190610e3b9190612385565b610e575760405162461bcd60e51b8152600401610305906123f5565b3360009081526003602052604081208054839290610e76908490612349565b90915550506000805433825260036020526040909120600201555b5050565b600a546001600160a01b03838116911614610ec25760405162461bcd60e51b8152600401610305906122b7565b6009546040516341976e0960e01b81526001600160a01b038481166004830152909116906341976e0990602401602060405180830381865afa158015610f0c573d6000803e3d6000fd5b505050506040513d601f19601f82011682018060405250810190610f3091906123c6565b33600090815260026020526040902054610f4a9083612349565b610f559060026123a7565b610f5f91906123a7565b6009546040516341976e0960e01b8152600060048201526001600160a01b03909116906341976e0990602401602060405180830381865afa158015610fa8573d6000803e3d6000fd5b505050506040513d601f19601f82011682018060405250810190610fcc91906123c6565b3360009081526002602081905260409091200154610fea91906123a7565b10156110385760405162461bcd60e51b815260206004820152601c60248201527f4c545620353025203a206c61636b206f6620636f6c6c61746572616c000000006044820152606401610305565b60405163a9059cbb60e01b8152336004820152602481018290526001600160a01b0383169063a9059cbb906044016020604051808303816000875af1158015611085573d6000803e3d6000fd5b505050506040513d601f19601f820116820180604052508101906110a99190612385565b6110e35760405162461bcd60e51b815260206004820152600b60248201526a189bdc9c9bddc819985a5b60aa1b6044820152606401610305565b6110ec33611c63565b336000908152600260205260408120805483929061110b908490612349565b90915550503360009081526002602052604081206001018054839290611132908490612349565b9091555050336000908152600260205260408120436003909101556006805483929061115f908490612349565b909155505060078054829190600090611179908490612349565b9091555050436008555050565b600a546000906001600160a01b038381169116146111b65760405162461bcd60e51b8152600401610305906122b7565b6000805b6001600160a01b03841660009081526004602052604090205481101561122e576001600160a01b0384166000908152600460205260409020805482908110611204576112046123df565b90600052602060002001548261121a9190612349565b91508061122681612421565b9150506111ba565b5061123833611c63565b600754600090611249908390612349565b60065461125691906122fa565b6001600160a01b0385811660008181526004602081815260408084208054600181018255908552828520018790559383526005905290829020600a5492516370a0823160e01b815230928101929092529394509116906370a0823190602401602060405180830381865afa1580156112d2573d6000803e3d6000fd5b505050506040513d601f19601f820116820180604052508101906112f691906123c6565b8154600181810184556000938452602084209091019190915581549091908190611321908490612349565b9091555050336000908152600360205260408120600201545b6001600160a01b03861660009081526004602052604090205481101561140e5761136381611d04565b336000908152600360209081526040808320546001600160a01b038a168452600590925290912080546113f0926113b6929091859081106113a6576113a66123df565b9060005260206000200154611c20565b6001600160a01b03881660009081526004602052604090208054849081106113e0576113e06123df565b9060005260206000200154611d49565b6113fa9083612349565b91508061140681612421565b91505061133a565b5043600154146114775760008054338252600360205260409091206002015561143681611d04565b3360009081526003602052604081208054839290611455908490612349565b9091555050336000908152600360205260408120600190810192909255439091555b33600090815260036020526040902054611492908290612349565b95945050505050565b6040516323b872dd60e01b81526001600160a01b038216906323b872dd906114cb90339030903490600401612361565b6020604051808303816000875af11580156114ea573d6000803e3d6000fd5b505050506040513d601f19601f8201168201806040525081019061150e9190612385565b61155a5760405162461bcd60e51b815260206004820152601760248201527f696e6974207472616e736665722066726f6d206661696c0000000000000000006044820152606401610305565b50565b6005602052816000526040600020818154811061157957600080fd5b90600052602060002001600091509150505481565b600a546001600160a01b03838116911614806115b157506001600160a01b038216155b6115cd5760405162461bcd60e51b8152600401610305906122b7565b6115d633611c63565b336000908152600360205260408120600181015481549092906115fa908490612349565b9091555050336000908152600360205260408120600101556001600160a01b038216611ae6576009546040516341976e0960e01b8152600060048201819052916001600160a01b0316906341976e0990602401602060405180830381865afa15801561166a573d6000803e3d6000fd5b505050506040513d601f19601f8201168201806040525081019061168e91906123c6565b33600090815260026020819052604090912001546116ad9060036123a7565b6116b791906123a7565b600954600a546040516341976e0960e01b81526001600160a01b0391821660048201529116906341976e0990602401602060405180830381865afa158015611703573d6000803e3d6000fd5b505050506040513d601f19601f8201168201806040525081019061172791906123c6565b336000908152600260205260409020546117429060046123a7565b61174c91906123a7565b1161194457600954600a546040516341976e0960e01b81526001600160a01b039182166004820152611941926119289216906341976e0990602401602060405180830381865afa1580156117a4573d6000803e3d6000fd5b505050506040513d601f19601f820116820180604052508101906117c891906123c6565b336000908152600260205260409020546117e39060046123a7565b6117ed91906123a7565b6009546040516341976e0960e01b8152600060048201526001600160a01b03909116906341976e0990602401602060405180830381865afa158015611836573d6000803e3d6000fd5b505050506040513d601f19601f8201168201806040525081019061185a91906123c6565b33600090815260026020819052604090912001546118799060036123a7565b61188391906123a7565b61188d91906122fa565b6009546040516341976e0960e01b8152600060048201526001600160a01b03909116906341976e0990602401602060405180830381865afa1580156118d6573d6000803e3d6000fd5b505050506040513d601f19601f820116820180604052508101906118fa91906123c6565b33600090815260026020819052604090912001546119199060036123a7565b61192391906123a7565b611c20565b3360009081526002602081905260409091200154611d49565b90505b600954600a546040516341976e0960e01b81526001600160a01b0391821660048201529116906341976e0990602401602060405180830381865afa158015611990573d6000803e3d6000fd5b505050506040513d601f19601f820116820180604052508101906119b491906123c6565b336000908152600260205260409020546119ce91906123a7565b6119d99060026123a7565b6009546040516341976e0960e01b8152600060048201526001600160a01b03909116906341976e0990602401602060405180830381865afa158015611a22573d6000803e3d6000fd5b505050506040513d601f19601f82011682018060405250810190611a4691906123c6565b3360009081526002602081905260409091200154611a6491906123a7565b1180611a705750808211155b611a8c5760405162461bcd60e51b8152600401610305906123f5565b3360009081526002602081905260408220018054849290611aae9084906122fa565b9091555050604051339083156108fc029084906000818181858888f19350505050158015611ae0573d6000803e3d6000fd5b50505050565b33600090815260036020526040902054611aff83611186565b611b0991906122fa565b3360009081526003602052604081208054909190611b28908490612349565b90915550506000805433825260036020526040909120600281019190915554811115611b665760405162461bcd60e51b8152600401610305906123f5565b3360009081526003602052604081208054839290611b859084906122fa565b9091555050600a5460405163a9059cbb60e01b8152336004820152602481018390526001600160a01b039091169063a9059cbb906044016020604051808303816000875af1158015611bdb573d6000803e3d6000fd5b505050506040513d601f19601f82011682018060405250810190611bff9190612385565b505050565b6004602052816000526040600020818154811061157957600080fd5b600081600003611c2f57600080fd5b6000611c3b8484611db4565b905060016001607f1b036001600160801b0382161115611c5a57600080fd5b90505b92915050565b611c6c81611f19565b6001600160a01b03821660009081526002602052604081208054909190611c94908490612349565b90915550506001600160a01b0381166000908152600260205260408120436003909101819055600854611cc6916122fa565b90508015801590611cd8575060085415155b15610e9157600b54611cf990611cf190600f0b83611fc8565b600654611d49565b600655436008555050565b61155a81604051602401611d1a91815260200190565b60408051601f198184030181529190526020810180516001600160e01b031663f5b1bba960e01b1790526121f9565b600081600003611d5b57506000611c5d565b600083600f0b1215611d6c57600080fd5b600f83900b6001600160801b038316810260401c90608084901c026001600160c01b03811115611d9b57600080fd5b60401b8119811115611dac57600080fd5b019392505050565b600081600003611dc357600080fd5b60006001600160c01b038411611dee5782604085901b81611de657611de6612311565b049050611f05565b60c084811c6401000000008110611e07576020918201911c5b620100008110611e19576010918201911c5b6101008110611e2a576008918201911c5b60108110611e3a576004918201911c5b60048110611e4a576002918201911c5b60028110611e59576001820191505b60bf820360018603901c6001018260ff0387901b81611e7a57611e7a612311565b0492506001600160801b03831115611e9157600080fd5b608085901c83026001600160801b038616840260c088901c604089901b82811015611ebd576001820391505b608084901b92900382811015611ed4576001820391505b829003608084901c8214611eea57611eea61243a565b888181611ef957611ef9612311565b04870196505050505050505b6001600160801b03811115611c5a57600080fd5b6001600160a01b0381166000908152600260205260408120548103611f4057506000919050565b6001600160a01b038216600090815260026020526040812060030154611f6690436122fa565b600b54909150611f9b90611f7d90600f0b83611fc8565b6001600160a01b038516600090815260026020526040902054611d49565b6001600160a01b038416600090815260026020526040902054909250611fc190836122fa565b9392505050565b600080600084600f0b128015611fe15750826001166001145b905060008085600f0b12611ff55784611ffa565b846000035b6001600160801b03169050600160801b68010000000000000000821161209457603f82901b91505b841561208c576001851615612037578102607f1c5b908002607f1c90600285161561204d578102607f1c5b908002607f1c906004851615612063578102607f1c5b908002607f1c906008851615612079578102607f1c5b60049490941c93908002607f1c90612022565b60401c6121aa565b603f600160601b8310156120ae5760209290921b91601f19015b600160701b8310156120c65760109290921b91600f19015b600160781b8310156120de5760089290921b91600719015b6001607c1b8310156120f65760049290921b91600319015b6001607e1b83101561210e5760029290921b91600119015b6001607f1b8310156121265760019290921b91600019015b60005b8615612193576040821061213c57600080fd5b600187161561216257918302607f1c918101600160801b83111561216257600192831c92015b928002607f1c9260019190911b90600160801b841061218757600193841c9391909101905b600187901c9650612129565b604081106121a057600080fd5b6040039190911c90505b6000836121b757816121bc565b816000035b90506f7fffffffffffffffffffffffffffffff1981128015906121e6575060016001607f1b038113155b6121ef57600080fd5b9695505050505050565b80516a636f6e736f6c652e6c6f67602083016000808483855afa5050505050565b80356001600160a01b038116811461223157600080fd5b919050565b6000806040838503121561224957600080fd5b6122528361221a565b946020939093013593505050565b60008060006060848603121561227557600080fd5b61227e8461221a565b925061228c6020850161221a565b9150604084013590509250925092565b6000602082840312156122ae57600080fd5b611fc18261221a565b602080825260139082015272746f6b656e206164647265737320636865636b60681b604082015260600190565b634e487b7160e01b600052601160045260246000fd5b60008282101561230c5761230c6122e4565b500390565b634e487b7160e01b600052601260045260246000fd5b60008261234457634e487b7160e01b600052601260045260246000fd5b500490565b6000821982111561235c5761235c6122e4565b500190565b6001600160a01b039384168152919092166020820152604081019190915260600190565b60006020828403121561239757600080fd5b81518015158114611c5a57600080fd5b60008160001904831182151516156123c1576123c16122e4565b500290565b6000602082840312156123d857600080fd5b5051919050565b634e487b7160e01b600052603260045260246000fd5b602080825260129082015271616d6f756e742076616c756520636865636b60701b604082015260600190565b600060018201612433576124336122e4565b5060010190565b634e487b7160e01b600052600160045260246000fdfea2646970667358221220e530fef1b1fe016d948e22c32acbd6bf1896718f4b80e6d3e0d0b97df566487c64736f6c634300080d0033",
    "linkReferences": {}
  },
  "methodIdentifiers": {
    "block_snap(address,uint256)": "f2026a20",
    "borrow(address,uint256)": "4b8a3529",
    "borrowers(address)": "bf5d50c4",
    "deposit(address,uint256)": "47e7ef24",
    "getAccruedSupplyAmount(address)": "53415e44",
    "initializeLendingProtocol(address)": "8f1e9779",
    "lending_info()": "1cc48d29",
    "liquidate(address,address,uint256)": "26c01303",
    "repay(address,uint256)": "22867d78",
    "stakers(address)": "9168ae72",
    "token_lp(address,uint256)": "f6525ceb",
    "withdraw(address,uint256)": "f3fef3a3"
  },
  "id": 11
}