{
  "abi": [
    {
      "inputs": [
        {
          "internalType": "address",
          "name": "usdc",
          "type": "address"
        },
        {
          "internalType": "address",
          "name": "dreamoracle",
          "type": "address"
        }
      ],
      "stateMutability": "nonpayable",
      "type": "constructor"
    },
    {
      "inputs": [],
      "name": "atoken",
      "outputs": [
        {
          "internalType": "contract Atoken",
          "name": "",
          "type": "address"
        }
      ],
      "stateMutability": "view",
      "type": "function"
    },
    {
      "inputs": [
        {
          "internalType": "address",
          "name": "user",
          "type": "address"
        }
      ],
      "name": "atoken_balanceOf",
      "outputs": [
        {
          "internalType": "uint256",
          "name": "",
          "type": "uint256"
        }
      ],
      "stateMutability": "view",
      "type": "function"
    },
    {
      "inputs": [
        {
          "internalType": "address",
          "name": "tokenAddress",
          "type": "address"
        },
        {
          "internalType": "uint256",
          "name": "amount",
          "type": "uint256"
        }
      ],
      "name": "borrow",
      "outputs": [],
      "stateMutability": "nonpayable",
      "type": "function"
    },
    {
      "inputs": [
        {
          "internalType": "address",
          "name": "",
          "type": "address"
        }
      ],
      "name": "borrower_list",
      "outputs": [
        {
          "internalType": "uint256",
          "name": "time",
          "type": "uint256"
        },
        {
          "internalType": "uint256",
          "name": "loan",
          "type": "uint256"
        },
        {
          "internalType": "uint256",
          "name": "borrow_loan",
          "type": "uint256"
        },
        {
          "internalType": "uint256",
          "name": "guarantee",
          "type": "uint256"
        },
        {
          "internalType": "uint256",
          "name": "lock_guarantee",
          "type": "uint256"
        }
      ],
      "stateMutability": "view",
      "type": "function"
    },
    {
      "inputs": [
        {
          "internalType": "address",
          "name": "tokenAddress",
          "type": "address"
        },
        {
          "internalType": "uint256",
          "name": "amount",
          "type": "uint256"
        }
      ],
      "name": "deposit",
      "outputs": [],
      "stateMutability": "payable",
      "type": "function"
    },
    {
      "inputs": [
        {
          "internalType": "address",
          "name": "user",
          "type": "address"
        }
      ],
      "name": "guarantee_balanceOf",
      "outputs": [
        {
          "internalType": "uint256",
          "name": "",
          "type": "uint256"
        }
      ],
      "stateMutability": "view",
      "type": "function"
    },
    {
      "inputs": [
        {
          "internalType": "address",
          "name": "borrower_addr",
          "type": "address"
        },
        {
          "internalType": "address",
          "name": "tokenAddress",
          "type": "address"
        },
        {
          "internalType": "uint256",
          "name": "amount",
          "type": "uint256"
        }
      ],
      "name": "liquidate",
      "outputs": [],
      "stateMutability": "nonpayable",
      "type": "function"
    },
    {
      "inputs": [
        {
          "internalType": "address",
          "name": "user",
          "type": "address"
        }
      ],
      "name": "loan_balanceOf",
      "outputs": [
        {
          "internalType": "uint256",
          "name": "",
          "type": "uint256"
        }
      ],
      "stateMutability": "view",
      "type": "function"
    },
    {
      "inputs": [
        {
          "internalType": "address",
          "name": "user",
          "type": "address"
        }
      ],
      "name": "lock_guarantee_balanceOf",
      "outputs": [
        {
          "internalType": "uint256",
          "name": "",
          "type": "uint256"
        }
      ],
      "stateMutability": "view",
      "type": "function"
    },
    {
      "inputs": [],
      "name": "oracle",
      "outputs": [
        {
          "internalType": "contract DreamOracle",
          "name": "",
          "type": "address"
        }
      ],
      "stateMutability": "view",
      "type": "function"
    },
    {
      "inputs": [
        {
          "internalType": "address",
          "name": "tokenAddress",
          "type": "address"
        },
        {
          "internalType": "uint256",
          "name": "amount",
          "type": "uint256"
        }
      ],
      "name": "repay",
      "outputs": [],
      "stateMutability": "nonpayable",
      "type": "function"
    },
    {
      "inputs": [
        {
          "internalType": "address",
          "name": "borrower_addr",
          "type": "address"
        }
      ],
      "name": "update_fee",
      "outputs": [],
      "stateMutability": "nonpayable",
      "type": "function"
    },
    {
      "inputs": [],
      "name": "usdc_addr",
      "outputs": [
        {
          "internalType": "address",
          "name": "",
          "type": "address"
        }
      ],
      "stateMutability": "view",
      "type": "function"
    },
    {
      "inputs": [
        {
          "internalType": "address",
          "name": "tokenAddress",
          "type": "address"
        },
        {
          "internalType": "uint256",
          "name": "amount",
          "type": "uint256"
        }
      ],
      "name": "withdraw",
      "outputs": [],
      "stateMutability": "nonpayable",
      "type": "function"
    }
  ],
  "bytecode": {
    "object": "0x60806040523480156200001157600080fd5b5060405162002b2238038062002b228339810160408190526200003491620000e4565b600280546001600160a01b038085166001600160a01b03199283161790925560008054928416929091169190911790556040516200007290620000b9565b604051809103906000f0801580156200008f573d6000803e3d6000fd5b50600180546001600160a01b0319166001600160a01b0392909216919091179055506200011c9050565b610ebb8062001c6783390190565b80516001600160a01b0381168114620000df57600080fd5b919050565b60008060408385031215620000f857600080fd5b6200010383620000c7565b91506200011360208401620000c7565b90509250929050565b611b3b806200012c6000396000f3fe6080604052600436106100dd5760003560e01c806355a016dd1161007f578063d1d1398511610059578063d1d1398514610275578063ed9da81014610295578063f3fef3a3146102ce578063fdcedfef146102ee57600080fd5b806355a016dd146102155780637dc0d1d014610235578063a293b0cd1461025557600080fd5b8063429035c0116100bb578063429035c01461017157806347e7ef24146101aa5780634b8a3529146101bd578063525b58b7146101dd57600080fd5b8063071a7a69146100e257806322867d781461012f57806326c0130314610151575b600080fd5b3480156100ee57600080fd5b5061011c6100fd366004611963565b6001600160a01b03166000908152600360208190526040909120015490565b6040519081526020015b60405180910390f35b34801561013b57600080fd5b5061014f61014a366004611985565b610361565b005b34801561015d57600080fd5b5061014f61016c3660046119af565b6106be565b34801561017d57600080fd5b5061011c61018c366004611963565b6001600160a01b031660009081526003602052604090206001015490565b61014f6101b8366004611985565b610dc4565b3480156101c957600080fd5b5061014f6101d8366004611985565b610fb2565b3480156101e957600080fd5b506002546101fd906001600160a01b031681565b6040516001600160a01b039091168152602001610126565b34801561022157600080fd5b5061014f610230366004611963565b6112f0565b34801561024157600080fd5b506000546101fd906001600160a01b031681565b34801561026157600080fd5b506001546101fd906001600160a01b031681565b34801561028157600080fd5b5061011c610290366004611963565b611334565b3480156102a157600080fd5b5061011c6102b0366004611963565b6001600160a01b031660009081526003602052604090206004015490565b3480156102da57600080fd5b5061014f6102e9366004611985565b6113a9565b3480156102fa57600080fd5b50610339610309366004611963565b60036020819052600091825260409091208054600182015460028301549383015460049093015491939092909185565b604080519586526020860194909452928401919091526060830152608082015260a001610126565b6002546001600160a01b038381169116146103975760405162461bcd60e51b815260040161038e906119eb565b60405180910390fd5b60006103a233611878565b3360009081526003602052604090206001015490915082906103c5908390611a2e565b10156104085760405162461bcd60e51b8152602060048201526012602482015271436865636b20616d6f756e742076616c756560701b604482015260640161038e565b6040516323b872dd60e01b8152336004820152306024820152604481018390526001600160a01b038416906323b872dd906064016020604051808303816000875af115801561045b573d6000803e3d6000fd5b505050506040513d601f19601f8201168201806040525081019061047f9190611a41565b6104cb5760405162461bcd60e51b815260206004820152601a60248201527f7265706179203a207472616e7366657246726f6d204572726f72000000000000604482015260640161038e565b600080546040516341976e0960e01b8152600481018390526001600160a01b03909116906341976e0990602401602060405180830381865afa158015610515573d6000803e3d6000fd5b505050506040513d601f19601f820116820180604052508101906105399190611a63565b600080546002546040516341976e0960e01b81526001600160a01b03918216600482015293945091929116906341976e0990602401602060405180830381865afa15801561058b573d6000803e3d6000fd5b505050506040513d601f19601f820116820180604052508101906105af9190611a63565b90506105ba336112f0565b33600090815260036020526040812060028101546001909101546105de9190611a7c565b90508085111561068f57336000908152600360205260408120600201546106058388611a7c565b336000908152600360205260409020600401546106229190611a8f565b61062c9190611ac4565b90506106388287611a7c565b336000908152600360205260408120600201805490919061065a908490611a7c565b9091555050604051339082156108fc029083906000818181858888f1935050505015801561068c573d6000803e3d6000fd5b50505b33600090815260036020526040812060010180548792906106b1908490611a7c565b9091555050505050505050565b6106c7836112f0565b600080546002546040516341976e0960e01b81526001600160a01b0391821660048201529116906341976e0990602401602060405180830381865afa158015610714573d6000803e3d6000fd5b505050506040513d601f19601f820116820180604052508101906107389190611a63565b600080546040516341976e0960e01b81526004808201939093526001600160a01b03909116906341976e0990602401602060405180830381865afa158015610784573d6000803e3d6000fd5b505050506040513d601f19601f820116820180604052508101906107a89190611a63565b6001600160a01b0387166000908152600360205260409020600401546107d790670de0b6b3a764000090611ac4565b6107e19190611a8f565b6107f3906729a2241af62c0000611a8f565b6107fd9190611ac4565b6108079190611ac4565b6001600160a01b0385166000908152600360205260409020600101549091508111156108915760405162461bcd60e51b815260206004820152603360248201527f4c69717569646174696f6e205468726573686f6c6420373525203a20496d706f604482015272737369626c6520746f206c697175696461746560681b606482015260840161038e565b6001600160a01b0384166000908152600360205260409020600101548211156109355760405162461bcd60e51b815260206004820152604a60248201527f416e20616d6f756e742067726561746572207468616e2074686520616d6f756e60448201527f7420746861742063616e206265206c69717569646174656420686173206265656064820152691b881c9958d95a5d995960b21b608482015260a40161038e565b6040516323b872dd60e01b8152336004820152306024820152604481018390526001600160a01b038416906323b872dd906064016020604051808303816000875af1158015610988573d6000803e3d6000fd5b505050506040513d601f19601f820116820180604052508101906109ac9190611a41565b6109f85760405162461bcd60e51b815260206004820152601e60248201527f6c6971756964617465203a207472616e7366657246726f6d204572726f720000604482015260640161038e565b6001600160a01b03841660009081526003602052604081206002810154600190910154610a259190611a7c565b6001600160a01b038616600090815260036020526040812060010180549293508592909190610a55908490611a7c565b909155506000905081841115610dbc57610a6f8285611a7c565b6001600160a01b03871660009081526003602052604081206002018054909190610a9a908490611a7c565b9091555050600080546040516341976e0960e01b815260048101929092526001600160a01b0316906341976e0990602401602060405180830381865afa158015610ae8573d6000803e3d6000fd5b505050506040513d601f19601f82011682018060405250810190610b0c9190611a63565b8410610c5057600080546040516341976e0960e01b815260048101929092526001600160a01b0316906341976e0990602401602060405180830381865afa158015610b5b573d6000803e3d6000fd5b505050506040513d601f19601f82011682018060405250810190610b7f9190611a63565b6000546002546040516341976e0960e01b81526001600160a01b0391821660048201529116906341976e0990602401602060405180830381865afa158015610bcb573d6000803e3d6000fd5b505050506040513d601f19601f82011682018060405250810190610bef9190611a63565b610c01670de0b6b3a764000087611ac4565b610c0b9190611a8f565b610c159190611ac4565b6001600160a01b038716600090815260036020526040812060040180549293508392909190610c45908490611a7c565b90915550610d779050565b600080546040516341976e0960e01b815260048101929092526001600160a01b0316906341976e0990602401602060405180830381865afa158015610c99573d6000803e3d6000fd5b505050506040513d601f19601f82011682018060405250810190610cbd9190611a63565b6000546002546040516341976e0960e01b81526001600160a01b0391821660048201529116906341976e0990602401602060405180830381865afa158015610d09573d6000803e3d6000fd5b505050506040513d601f19601f82011682018060405250810190610d2d9190611a63565b610d379086611a8f565b610d419190611ac4565b6001600160a01b038716600090815260036020526040812060040180549293508392909190610d71908490611a7c565b90915550505b336108fc6064610d88846005611a8f565b610d929190611ac4565b6040518115909202916000818181858888f19350505050158015610dba573d6000803e3d6000fd5b505b505050505050565b6002546001600160a01b0383811691161480610df157506001600160a01b038216158015610df157508034145b610e505760405162461bcd60e51b815260206004820152602a60248201527f436865636b207468617420746865206465706f7369742063616c6c20776173206044820152691cdd58d8d95cdcd99d5b60b21b606482015260840161038e565b6001600160a01b038216610e8b573360009081526003602081905260408220018054349290610e80908490611a2e565b90915550610fae9050565b6040516323b872dd60e01b8152336004820152306024820152604481018290526001600160a01b038316906323b872dd906064016020604051808303816000875af1158015610ede573d6000803e3d6000fd5b505050506040513d601f19601f82011682018060405250810190610f029190611a41565b610f4e5760405162461bcd60e51b815260206004820152601c60248201527f4465706f736974203a207472616e7366657246726f6d204572726f7200000000604482015260640161038e565b6001546040516340c10f1960e01b8152336004820152602481018390526001600160a01b03909116906340c10f1990604401600060405180830381600087803b158015610f9a57600080fd5b505af1158015610dbc573d6000803e3d6000fd5b5050565b6002546001600160a01b03838116911614610fdf5760405162461bcd60e51b815260040161038e906119eb565b600080546040516341976e0960e01b8152600481018390526001600160a01b03909116906341976e0990602401602060405180830381865afa158015611029573d6000803e3d6000fd5b505050506040513d601f19601f8201168201806040525081019061104d9190611a63565b600080546002546040516341976e0960e01b81526001600160a01b03918216600482015293945091929116906341976e0990602401602060405180830381865afa15801561109f573d6000803e3d6000fd5b505050506040513d601f19601f820116820180604052508101906110c39190611a63565b90506110d0836002611a8f565b336000908152600360208190526040909120015483906110f1908490611ac4565b6110fb9190611a8f565b10156111495760405162461bcd60e51b815260206004820152601c60248201527f4c545620353025203a206c61636b206f6620636f6c6c61746572616c00000000604482015260640161038e565b611152336112f0565b3360009081526003602052604081206001018054859290611174908490611a2e565b9091555050336000908152600360205260408120600201805485929061119b908490611a2e565b90915550829050816111b5670de0b6b3a764000086611ac4565b6111bf9190611a8f565b6111d190671bc16d674ec80000611a8f565b6111db9190611ac4565b33600090815260036020819052604082200180549091906111fd908490611a7c565b9091555082905081611217670de0b6b3a764000086611ac4565b6112219190611a8f565b61123390671bc16d674ec80000611a8f565b61123d9190611ac4565b336000908152600360205260408120600401805490919061125f908490611a2e565b909155505033600081815260036020526040908190204290555163a9059cbb60e01b81526004810191909152602481018490526001600160a01b0385169063a9059cbb906044016020604051808303816000875af11580156112c5573d6000803e3d6000fd5b505050506040513d601f19601f820116820180604052508101906112e99190611a41565b5050505050565b60006112fb82611878565b6001600160a01b03831660009081526003602052604081206001018054929350839290919061132b908490611a2e565b90915550505050565b6001546040516370a0823160e01b81526001600160a01b03838116600483015260009216906370a0823190602401602060405180830381865afa15801561137f573d6000803e3d6000fd5b505050506040513d601f19601f820116820180604052508101906113a39190611a63565b92915050565b6002546001600160a01b03838116911614806113cc57506001600160a01b038216155b6113e85760405162461bcd60e51b815260040161038e906119eb565b6002546001600160a01b03908116908316036117c757600154604080516318160ddd60e01b815290516000926001600160a01b0316916318160ddd9160048083019260209291908290030181865afa158015611448573d6000803e3d6000fd5b505050506040513d601f19601f8201168201806040525081019061146c9190611a63565b6001546040516370a0823160e01b81523360048201526001600160a01b03909116906370a0823190602401602060405180830381865afa1580156114b4573d6000803e3d6000fd5b505050506040513d601f19601f820116820180604052508101906114d89190611a63565b6040516370a0823160e01b81523060048201526001600160a01b038616906370a0823190602401602060405180830381865afa15801561151c573d6000803e3d6000fd5b505050506040513d601f19601f820116820180604052508101906115409190611a63565b61154a9190611a8f565b6115549190611ac4565b90506115608183611ad8565b600003611658576001546040516370a0823160e01b815233600482018190526001600160a01b0390921691639dc29fac918490869085906370a0823190602401602060405180830381865afa1580156115bd573d6000803e3d6000fd5b505050506040513d601f19601f820116820180604052508101906115e19190611a63565b6115eb9190611a8f565b6115f59190611ac4565b6040516001600160e01b031960e085901b1681526001600160a01b0390921660048301526024820152604401600060405180830381600087803b15801561163b57600080fd5b505af115801561164f573d6000803e3d6000fd5b50505050611750565b6001546040516370a0823160e01b815233600482018190526001600160a01b0390921691639dc29fac918490869085906370a0823190602401602060405180830381865afa1580156116ae573d6000803e3d6000fd5b505050506040513d601f19601f820116820180604052508101906116d29190611a63565b6116dc9190611a8f565b6116e69190611ac4565b6116f1906001611a2e565b6040516001600160e01b031960e085901b1681526001600160a01b0390921660048301526024820152604401600060405180830381600087803b15801561173757600080fd5b505af115801561174b573d6000803e3d6000fd5b505050505b60405163a9059cbb60e01b8152336004820152602481018390526001600160a01b0384169063a9059cbb906044016020604051808303816000875af115801561179d573d6000803e3d6000fd5b505050506040513d601f19601f820116820180604052508101906117c19190611a41565b50505050565b336000908152600360208190526040909120015481111561181f5760405162461bcd60e51b8152602060048201526012602482015271436865636b20616d6f756e742076616c756560701b604482015260640161038e565b3360009081526003602081905260408220018054839290611841908490611a7c565b9091555050604051339082156108fc029083906000818181858888f19350505050158015611873573d6000803e3d6000fd5b505050565b6001600160a01b03811660009081526003602052604081206001810154905490919062015180906118a99042611a7c565b6118b39190611ac4565b905060005b818110156118ed576103e86118cf846103e9611a8f565b6118d99190611ac4565b9250806118e581611aec565b9150506118b8565b50811561193c576001600160a01b03831660009081526003602052604090206001015461191a9083611a7c565b6001600160a01b03841660009081526003602052604090204290559150611941565b600091505b50919050565b80356001600160a01b038116811461195e57600080fd5b919050565b60006020828403121561197557600080fd5b61197e82611947565b9392505050565b6000806040838503121561199857600080fd5b6119a183611947565b946020939093013593505050565b6000806000606084860312156119c457600080fd5b6119cd84611947565b92506119db60208501611947565b9150604084013590509250925092565b602080825260139082015272436865636b20746f6b656e206164647265737360681b604082015260600190565b634e487b7160e01b600052601160045260246000fd5b808201808211156113a3576113a3611a18565b600060208284031215611a5357600080fd5b8151801515811461197e57600080fd5b600060208284031215611a7557600080fd5b5051919050565b818103818111156113a3576113a3611a18565b6000816000190483118215151615611aa957611aa9611a18565b500290565b634e487b7160e01b600052601260045260246000fd5b600082611ad357611ad3611aae565b500490565b600082611ae757611ae7611aae565b500690565b600060018201611afe57611afe611a18565b506001019056fea26469706673582212204fcf7d87a6ba92924bc3b8f1fb178d38393afaa61f30ce6d005ee0e568979b5c64736f6c6343000810003360806040523480156200001157600080fd5b506040518060400160405280600681526020016520ba37b5b2b760d11b815250604051806040016040528060018152602001604160f81b815250620000656200005f6200008b60201b60201c565b6200008f565b600462000073838262000184565b50600562000082828262000184565b50505062000250565b3390565b600080546001600160a01b038381166001600160a01b0319831681178455604051919092169283917f8be0079c531659141344cd1fd0a4f28419497f9722a3daafe3b4186f6b6457e09190a35050565b634e487b7160e01b600052604160045260246000fd5b600181811c908216806200010a57607f821691505b6020821081036200012b57634e487b7160e01b600052602260045260246000fd5b50919050565b601f8211156200017f57600081815260208120601f850160051c810160208610156200015a5750805b601f850160051c820191505b818110156200017b5782815560010162000166565b5050505b505050565b81516001600160401b03811115620001a057620001a0620000df565b620001b881620001b18454620000f5565b8462000131565b602080601f831160018114620001f05760008415620001d75750858301515b600019600386901b1c1916600185901b1785556200017b565b600085815260208120601f198616915b82811015620002215788860151825594840194600190910190840162000200565b5085821015620002405787850151600019600388901b60f8161c191681555b5050505050600190811b01905550565b610c5b80620002606000396000f3fe608060405234801561001057600080fd5b50600436106101005760003560e01c8063715018a611610097578063a457c2d711610066578063a457c2d714610209578063a9059cbb1461021c578063dd62ed3e1461022f578063f2fde38b1461024257600080fd5b8063715018a6146101cb5780638da5cb5b146101d357806395d89b41146101ee5780639dc29fac146101f657600080fd5b8063313ce567116100d3578063313ce5671461016b578063395093511461017a57806340c10f191461018d57806370a08231146101a257600080fd5b806306fdde0314610105578063095ea7b31461012357806318160ddd1461014657806323b872dd14610158575b600080fd5b61010d610255565b60405161011a9190610aa5565b60405180910390f35b610136610131366004610b0f565b6102e7565b604051901515815260200161011a565b6003545b60405190815260200161011a565b610136610166366004610b39565b610301565b6040516012815260200161011a565b610136610188366004610b0f565b610325565b6101a061019b366004610b0f565b610347565b005b61014a6101b0366004610b75565b6001600160a01b031660009081526001602052604090205490565b6101a061035d565b6000546040516001600160a01b03909116815260200161011a565b61010d610371565b6101a0610204366004610b0f565b610380565b610136610217366004610b0f565b610392565b61013661022a366004610b0f565b610412565b61014a61023d366004610b97565b610420565b6101a0610250366004610b75565b61044b565b60606004805461026490610bca565b80601f016020809104026020016040519081016040528092919081815260200182805461029090610bca565b80156102dd5780601f106102b2576101008083540402835291602001916102dd565b820191906000526020600020905b8154815290600101906020018083116102c057829003601f168201915b5050505050905090565b6000336102f58185856104c4565b60019150505b92915050565b60003361030f8582856105e9565b61031a858585610663565b506001949350505050565b6000336102f58185856103388383610420565b6103429190610c04565b6104c4565b61034f61080e565b6103598282610868565b5050565b61036561080e565b61036f6000610929565b565b60606005805461026490610bca565b61038861080e565b6103598282610979565b600033816103a08286610420565b9050838110156104055760405162461bcd60e51b815260206004820152602560248201527f45524332303a2064656372656173656420616c6c6f77616e63652062656c6f77604482015264207a65726f60d81b60648201526084015b60405180910390fd5b61031a82868684036104c4565b6000336102f5818585610663565b6001600160a01b03918216600090815260026020908152604080832093909416825291909152205490565b61045361080e565b6001600160a01b0381166104b85760405162461bcd60e51b815260206004820152602660248201527f4f776e61626c653a206e6577206f776e657220697320746865207a65726f206160448201526564647265737360d01b60648201526084016103fc565b6104c181610929565b50565b6001600160a01b0383166105265760405162461bcd60e51b8152602060048201526024808201527f45524332303a20617070726f76652066726f6d20746865207a65726f206164646044820152637265737360e01b60648201526084016103fc565b6001600160a01b0382166105875760405162461bcd60e51b815260206004820152602260248201527f45524332303a20617070726f766520746f20746865207a65726f206164647265604482015261737360f01b60648201526084016103fc565b6001600160a01b0383811660008181526002602090815260408083209487168084529482529182902085905590518481527f8c5be1e5ebec7d5bd14f71427d1e84f3dd0314c0f7b2291e5b200ac8c7c3b92591015b60405180910390a3505050565b60006105f58484610420565b9050600019811461065d57818110156106505760405162461bcd60e51b815260206004820152601d60248201527f45524332303a20696e73756666696369656e7420616c6c6f77616e636500000060448201526064016103fc565b61065d84848484036104c4565b50505050565b6001600160a01b0383166106c75760405162461bcd60e51b815260206004820152602560248201527f45524332303a207472616e736665722066726f6d20746865207a65726f206164604482015264647265737360d81b60648201526084016103fc565b6001600160a01b0382166107295760405162461bcd60e51b815260206004820152602360248201527f45524332303a207472616e7366657220746f20746865207a65726f206164647260448201526265737360e81b60648201526084016103fc565b6001600160a01b038316600090815260016020526040902054818110156107a15760405162461bcd60e51b815260206004820152602660248201527f45524332303a207472616e7366657220616d6f756e7420657863656564732062604482015265616c616e636560d01b60648201526084016103fc565b6001600160a01b0380851660008181526001602052604080822086860390559286168082529083902080548601905591517fddf252ad1be2c89b69c2b068fc378daa952ba7f163c4a11628f55a4df523b3ef906108019086815260200190565b60405180910390a361065d565b6000546001600160a01b0316331461036f5760405162461bcd60e51b815260206004820181905260248201527f4f776e61626c653a2063616c6c6572206973206e6f7420746865206f776e657260448201526064016103fc565b6001600160a01b0382166108be5760405162461bcd60e51b815260206004820152601f60248201527f45524332303a206d696e7420746f20746865207a65726f20616464726573730060448201526064016103fc565b80600360008282546108d09190610c04565b90915550506001600160a01b0382166000818152600160209081526040808320805486019055518481527fddf252ad1be2c89b69c2b068fc378daa952ba7f163c4a11628f55a4df523b3ef910160405180910390a35050565b600080546001600160a01b038381166001600160a01b0319831681178455604051919092169283917f8be0079c531659141344cd1fd0a4f28419497f9722a3daafe3b4186f6b6457e09190a35050565b6001600160a01b0382166109d95760405162461bcd60e51b815260206004820152602160248201527f45524332303a206275726e2066726f6d20746865207a65726f206164647265736044820152607360f81b60648201526084016103fc565b6001600160a01b03821660009081526001602052604090205481811015610a4d5760405162461bcd60e51b815260206004820152602260248201527f45524332303a206275726e20616d6f756e7420657863656564732062616c616e604482015261636560f01b60648201526084016103fc565b6001600160a01b03831660008181526001602090815260408083208686039055600380548790039055518581529192917fddf252ad1be2c89b69c2b068fc378daa952ba7f163c4a11628f55a4df523b3ef91016105dc565b600060208083528351808285015260005b81811015610ad257858101830151858201604001528201610ab6565b506000604082860101526040601f19601f8301168501019250505092915050565b80356001600160a01b0381168114610b0a57600080fd5b919050565b60008060408385031215610b2257600080fd5b610b2b83610af3565b946020939093013593505050565b600080600060608486031215610b4e57600080fd5b610b5784610af3565b9250610b6560208501610af3565b9150604084013590509250925092565b600060208284031215610b8757600080fd5b610b9082610af3565b9392505050565b60008060408385031215610baa57600080fd5b610bb383610af3565b9150610bc160208401610af3565b90509250929050565b600181811c90821680610bde57607f821691505b602082108103610bfe57634e487b7160e01b600052602260045260246000fd5b50919050565b808201808211156102fb57634e487b7160e01b600052601160045260246000fdfea2646970667358221220f889c4f9d8dadd7fee7058c4abcd459099787260d4901982ea9aeb82c76217a564736f6c63430008100033",
    "linkReferences": {}
  },
  "methodIdentifiers": {
    "atoken()": "a293b0cd",
    "atoken_balanceOf(address)": "d1d13985",
    "borrow(address,uint256)": "4b8a3529",
    "borrower_list(address)": "fdcedfef",
    "deposit(address,uint256)": "47e7ef24",
    "guarantee_balanceOf(address)": "071a7a69",
    "liquidate(address,address,uint256)": "26c01303",
    "loan_balanceOf(address)": "429035c0",
    "lock_guarantee_balanceOf(address)": "ed9da810",
    "oracle()": "7dc0d1d0",
    "repay(address,uint256)": "22867d78",
    "update_fee(address)": "55a016dd",
    "usdc_addr()": "525b58b7",
    "withdraw(address,uint256)": "f3fef3a3"
  },
  "id": 14
}