{
  "abi": [
    {
      "inputs": [
        {
          "internalType": "contract IPriceOracle",
          "name": "_oracle",
          "type": "address"
        },
        {
          "internalType": "address",
          "name": "_usdc",
          "type": "address"
        }
      ],
      "stateMutability": "nonpayable",
      "type": "constructor"
    },
    {
      "inputs": [
        {
          "internalType": "uint256",
          "name": "",
          "type": "uint256"
        }
      ],
      "name": "block_rate",
      "outputs": [
        {
          "internalType": "uint256",
          "name": "",
          "type": "uint256"
        }
      ],
      "stateMutability": "view",
      "type": "function"
    },
    {
      "inputs": [
        {
          "internalType": "address",
          "name": "token",
          "type": "address"
        },
        {
          "internalType": "uint256",
          "name": "amount",
          "type": "uint256"
        }
      ],
      "name": "borrow",
      "outputs": [],
      "stateMutability": "nonpayable",
      "type": "function"
    },
    {
      "inputs": [
        {
          "internalType": "address",
          "name": "",
          "type": "address"
        }
      ],
      "name": "borrower_list",
      "outputs": [
        {
          "internalType": "uint256",
          "name": "loan",
          "type": "uint256"
        },
        {
          "internalType": "uint256",
          "name": "init_loan",
          "type": "uint256"
        },
        {
          "internalType": "uint256",
          "name": "loan_term",
          "type": "uint256"
        },
        {
          "internalType": "uint256",
          "name": "guarantee",
          "type": "uint256"
        },
        {
          "internalType": "uint256",
          "name": "lock_guarantee",
          "type": "uint256"
        },
        {
          "internalType": "uint256",
          "name": "staking",
          "type": "uint256"
        },
        {
          "internalType": "uint256",
          "name": "check",
          "type": "uint256"
        },
        {
          "internalType": "uint256",
          "name": "before_yield",
          "type": "uint256"
        }
      ],
      "stateMutability": "view",
      "type": "function"
    },
    {
      "inputs": [
        {
          "internalType": "address",
          "name": "token",
          "type": "address"
        },
        {
          "internalType": "uint256",
          "name": "amount",
          "type": "uint256"
        }
      ],
      "name": "deposit",
      "outputs": [],
      "stateMutability": "payable",
      "type": "function"
    },
    {
      "inputs": [
        {
          "internalType": "address",
          "name": "token",
          "type": "address"
        }
      ],
      "name": "getAccruedSupplyAmount",
      "outputs": [
        {
          "internalType": "uint256",
          "name": "",
          "type": "uint256"
        }
      ],
      "stateMutability": "nonpayable",
      "type": "function"
    },
    {
      "inputs": [
        {
          "internalType": "address",
          "name": "token",
          "type": "address"
        }
      ],
      "name": "initializeLendingProtocol",
      "outputs": [],
      "stateMutability": "payable",
      "type": "function"
    },
    {
      "inputs": [],
      "name": "lending_info",
      "outputs": [
        {
          "internalType": "uint256",
          "name": "loan",
          "type": "uint256"
        },
        {
          "internalType": "uint256",
          "name": "init_loan",
          "type": "uint256"
        },
        {
          "internalType": "uint256",
          "name": "loan_term",
          "type": "uint256"
        }
      ],
      "stateMutability": "view",
      "type": "function"
    },
    {
      "inputs": [
        {
          "internalType": "address",
          "name": "user",
          "type": "address"
        },
        {
          "internalType": "address",
          "name": "token",
          "type": "address"
        },
        {
          "internalType": "uint256",
          "name": "amount",
          "type": "uint256"
        }
      ],
      "name": "liquidate",
      "outputs": [],
      "stateMutability": "nonpayable",
      "type": "function"
    },
    {
      "inputs": [
        {
          "internalType": "address",
          "name": "token",
          "type": "address"
        },
        {
          "internalType": "uint256",
          "name": "amount",
          "type": "uint256"
        }
      ],
      "name": "repay",
      "outputs": [],
      "stateMutability": "nonpayable",
      "type": "function"
    },
    {
      "inputs": [
        {
          "internalType": "address",
          "name": "borrower_addr",
          "type": "address"
        }
      ],
      "name": "update_fee",
      "outputs": [],
      "stateMutability": "nonpayable",
      "type": "function"
    },
    {
      "inputs": [],
      "name": "update_total_fee",
      "outputs": [],
      "stateMutability": "nonpayable",
      "type": "function"
    },
    {
      "inputs": [
        {
          "internalType": "address",
          "name": "token",
          "type": "address"
        },
        {
          "internalType": "uint256",
          "name": "amount",
          "type": "uint256"
        }
      ],
      "name": "withdraw",
      "outputs": [],
      "stateMutability": "nonpayable",
      "type": "function"
    }
  ],
  "bytecode": {
    "object": "0x60806040523480156200001157600080fd5b50604051620023c1380380620023c183398101604081905262000034916200028d565b600680546001600160a01b03199081166001600160a01b03858116919091179092556007805490911691831691909117905562000088641748771e3a64174876e800620000b1602090811b6200181b17901c565b600880546001600160801b0319166001600160801b039290921691909117905550620002f89050565b600081600003620000c157600080fd5b6000620000cf8484620000f6565b905060016001607f1b036001600160801b0382161115620000ef57600080fd5b9392505050565b6000816000036200010657600080fd5b60006001600160c01b038411620001365782604085901b816200012d576200012d620002cc565b0490506200025f565b60c084811c640100000000811062000150576020918201911c5b62010000811062000163576010918201911c5b610100811062000175576008918201911c5b6010811062000186576004918201911c5b6004811062000197576002918201911c5b60028110620001a7576001820191505b60bf820360018603901c6001018260ff0387901b81620001cb57620001cb620002cc565b0492506001600160801b03831115620001e357600080fd5b608085901c83026001600160801b038616840260c088901c604089901b8281101562000210576001820391505b608084901b9290038281101562000228576001820391505b829003608084901c8214620002415762000241620002e2565b888181620002535762000253620002cc565b04870196505050505050505b6001600160801b03811115620000ef57600080fd5b6001600160a01b03811681146200028a57600080fd5b50565b60008060408385031215620002a157600080fd5b8251620002ae8162000274565b6020840151909250620002c18162000274565b809150509250929050565b634e487b7160e01b600052601260045260246000fd5b634e487b7160e01b600052600160045260246000fd5b6120b980620003086000396000f3fe6080604052600436106100a75760003560e01c806353415e441161006457806353415e441461018e57806355a016dd146101ae5780638f1e9779146101ce578063c1fdf0aa146101e1578063f3fef3a3146101f6578063fdcedfef1461021657600080fd5b80631cc48d29146100ac57806322867d78146100eb57806326c013031461010d57806347e7ef241461012d5780634983180c146101405780634b8a35291461016e575b600080fd5b3480156100b857600080fd5b506003546004546005546100cb92919083565b604080519384526020840192909252908201526060015b60405180910390f35b3480156100f757600080fd5b5061010b610106366004611e08565b6102b4565b005b34801561011957600080fd5b5061010b610128366004611e32565b505050565b61010b61013b366004611e08565b6105ee565b34801561014c57600080fd5b5061016061015b366004611e6e565b61077b565b6040519081526020016100e2565b34801561017a57600080fd5b5061010b610189366004611e08565b61079c565b34801561019a57600080fd5b506101606101a9366004611e87565b610ca6565b3480156101ba57600080fd5b5061010b6101c9366004611e87565b610fba565b61010b6101dc366004611e87565b611018565b3480156101ed57600080fd5b5061010b6110dd565b34801561020257600080fd5b5061010b610211366004611e08565b611153565b34801561022257600080fd5b50610279610231366004611e87565b60016020528060005260406000206000915090508060000154908060010154908060020154908060030154908060040154908060050154908060060154908060070154905088565b604080519889526020890197909752958701949094526060860192909252608085015260a084015260c083015260e0820152610100016100e2565b6007546001600160a01b038381169116146102ea5760405162461bcd60e51b81526004016102e190611ea2565b60405180910390fd5b6102f333610fba565b6102fb6110dd565b33600090815260016020526040902054811061034f5760405162461bcd60e51b8152602060048201526013602482015272616d6f756e7420697320746f6f206c6172676560681b60448201526064016102e1565b33600090815260016020819052604082209081015490546103709190611ee5565b336000908152600160205260408120549192509061038f908490611f12565b6103999083611f12565b6007549091506001600160a01b03166323b872dd33306103b98588611f34565b6040516001600160e01b031960e086901b1681526001600160a01b03938416600482015292909116602483015260448201526064016020604051808303816000875af115801561040d573d6000803e3d6000fd5b505050506040513d601f19601f820116820180604052508101906104319190611f4c565b61047d5760405162461bcd60e51b815260206004820152601960248201527f626f72726f77207472616e7366657246726f6d206572726f720000000000000060448201526064016102e1565b6104878184611f34565b33600090815260016020526040812080549091906104a6908490611ee5565b90915550600090506104b88285611ee5565b33600090815260016020819052604090912001546104de90670de0b6b3a7640000611f6e565b6104e89190611f12565b3360009081526001602052604081206004015491925090829061051390670de0b6b3a7640000611f6e565b61051d9190611f12565b33600090815260016020526040812060040180549293508392909190610544908490611ee5565b9091555050336000908152600160205260408120600301805483929061056b908490611f34565b9091555061057b90508486611ee5565b336000908152600160208190526040822001805490919061059d908490611ee5565b909155506105ad90508386611f34565b600380546000906105bf908490611ee5565b909155506105cf90508486611ee5565b600480546000906105e1908490611ee5565b9091555050505050505050565b6007546001600160a01b038381169116148061061157506001600160a01b038216155b61062d5760405162461bcd60e51b81526004016102e190611ea2565b34156106a75780341461067a5760405162461bcd60e51b81526020600482015260156024820152744465706f7369743a20616d6f756e7420636865636b60581b60448201526064016102e1565b336000908152600160205260408120600301805483929061069c908490611f34565b909155506107779050565b6040516323b872dd60e01b8152336004820152306024820152604481018290526001600160a01b038316906323b872dd906064016020604051808303816000875af11580156106fa573d6000803e3d6000fd5b505050506040513d601f19601f8201168201806040525081019061071e9190611f4c565b61073a5760405162461bcd60e51b81526004016102e190611f8d565b336000908152600160205260408120600501805483929061075c908490611f34565b90915550506000805433825260016020526040909120600601555b5050565b6002818154811061078b57600080fd5b600091825260209091200154905081565b6007546001600160a01b038381169116146107c95760405162461bcd60e51b81526004016102e190611ea2565b6006546040516341976e0960e01b81526001600160a01b038481166004830152909116906341976e0990602401602060405180830381865afa158015610813573d6000803e3d6000fd5b505050506040513d601f19601f820116820180604052508101906108379190611fb9565b610842826002611f6e565b61084c9190611f6e565b6006546040516341976e0960e01b8152600060048201526001600160a01b03909116906341976e0990602401602060405180830381865afa158015610895573d6000803e3d6000fd5b505050506040513d601f19601f820116820180604052508101906108b99190611fb9565b336000908152600160205260409020600301546108d69190611f6e565b10156109245760405162461bcd60e51b815260206004820152601c60248201527f4c545620353025203a206c61636b206f6620636f6c6c61746572616c0000000060448201526064016102e1565b60405163a9059cbb60e01b8152336004820152602481018290526001600160a01b0383169063a9059cbb906044016020604051808303816000875af1158015610971573d6000803e3d6000fd5b505050506040513d601f19601f820116820180604052508101906109959190611f4c565b6109cf5760405162461bcd60e51b815260206004820152600b60248201526a189bdc9c9bddc819985a5b60aa1b60448201526064016102e1565b6006546040516341976e0960e01b8152600060048201526001600160a01b03909116906341976e0990602401602060405180830381865afa158015610a18573d6000803e3d6000fd5b505050506040513d601f19601f82011682018060405250810190610a3c9190611fb9565b6006546040516341976e0960e01b81526001600160a01b038581166004830152849216906341976e0990602401602060405180830381865afa158015610a86573d6000803e3d6000fd5b505050506040513d601f19601f82011682018060405250810190610aaa9190611fb9565b610ab49190611f6e565b610abf906002611f6e565b610ac99190611f12565b3360009081526001602052604081206003018054909190610aeb908490611ee5565b90915550506006546040516341976e0960e01b8152600060048201526001600160a01b03909116906341976e0990602401602060405180830381865afa158015610b39573d6000803e3d6000fd5b505050506040513d601f19601f82011682018060405250810190610b5d9190611fb9565b6006546040516341976e0960e01b81526001600160a01b038581166004830152849216906341976e0990602401602060405180830381865afa158015610ba7573d6000803e3d6000fd5b505050506040513d601f19601f82011682018060405250810190610bcb9190611fb9565b610bd59190611f6e565b610be0906002611f6e565b610bea9190611f12565b3360009081526001602052604081206004018054909190610c0c908490611f34565b90915550610c1b905033610fba565b610c236110dd565b3360009081526001602052604081208054839290610c42908490611f34565b90915550503360009081526001602081905260408220018054839290610c69908490611f34565b909155505060038054829190600090610c83908490611f34565b909155505060048054829190600090610c9d908490611f34565b90915550505050565b6007546000906001600160a01b03838116911614610cd65760405162461bcd60e51b81526004016102e190611ea2565b610cde6110dd565b600454600354600091610cf091611ee5565b9050610d15604051806040016040528060018152602001603160f81b8152508261185e565b610d60604051806040016040528060018152602001601960f91b81525060016000336001600160a01b03166001600160a01b031681526020019081526020016000206005015461185e565b60408051808201825260018152603360f81b602082015260075491516370a0823160e01b8152306004820152610de9926001600160a01b0316906370a0823190602401602060405180830381865afa158015610dc0573d6000803e3d6000fd5b505050506040513d601f19601f82011682018060405250810190610de49190611fb9565b61185e565b80600003610e0b57505033600090815260016020526040902060050154919050565b600280546001818101835560009283527f405787fa12a823e0f2b7631cc41b3ba8828b3321ca811111fa75cd3aa3bb5ace90910183905581549091908190610e54908490611f34565b9091555050336000908152600160205260408120600601545b600254811015610f295733600090815260016020526040908190206005015460075491516370a0823160e01b8152306004820152610f0b92610f0592916001600160a01b03909116906370a0823190602401602060405180830381865afa158015610edc573d6000803e3d6000fd5b505050506040513d601f19601f82011682018060405250810190610f009190611fb9565b61181b565b846118a3565b610f159083611f34565b915080610f2181611fd2565b915050610e6d565b5033600090815260016020526040902060070154610f479082611ee5565b3360009081526001602052604081206005018054909190610f69908490611f34565b9091555050336000908152600160208190526040822060078101849055600601805491929091610f9a908490611f34565b909155505033600090815260016020526040902060050154949350505050565b6000610fc58261190e565b6001600160a01b038316600090815260016020526040812080549293508392909190610ff2908490611f34565b9091555050506001600160a01b0316600090815260016020526040902043600290910155565b6040516323b872dd60e01b81523360048201523060248201523460448201526001600160a01b038216906323b872dd906064016020604051808303816000875af115801561106a573d6000803e3d6000fd5b505050506040513d601f19601f8201168201806040525081019061108e9190611f4c565b6110da5760405162461bcd60e51b815260206004820152601760248201527f696e6974207472616e736665722066726f6d206661696c00000000000000000060448201526064016102e1565b50565b6005546000906110ed9043611ee5565b905080158015906110ff575060055415155b1561114c5761112c604051806040016040528060018152602001600d60fa1b81525060036002015461185e565b6008546111489061114090600f0b836119ad565b6003546118a3565b6003555b5043600555565b6007546001600160a01b038381169116148061117657506001600160a01b038216155b6111925760405162461bcd60e51b81526004016102e190611ea2565b6001600160a01b03821661174d57336000908152600160205260409020600401546111bc90611bde565b336000908152600160205260409020546111d590611bde565b6006546040516341976e0960e01b8152600060048201819052916001600160a01b0316906341976e0990602401602060405180830381865afa15801561121f573d6000803e3d6000fd5b505050506040513d601f19601f820116820180604052508101906112439190611fb9565b33600090815260016020526040902060040154670de0b6b3a76400009061126b906003611f6e565b6112759190611f12565b61127f9190611f6e565b6006546007546040516341976e0960e01b81526001600160a01b0391821660048201529293506000929116906341976e0990602401602060405180830381865afa1580156112d1573d6000803e3d6000fd5b505050506040513d601f19601f820116820180604052508101906112f59190611fb9565b33600090815260016020526040902054670de0b6b3a76400009061131a906004611f6e565b6113249190611f12565b61132e9190611f6e565b905061133982611bde565b61134281611bde565b6006546040516341976e0960e01b8152600060048201819052916001600160a01b0316906341976e0990602401602060405180830381865afa15801561138c573d6000803e3d6000fd5b505050506040513d601f19601f820116820180604052508101906113b09190611fb9565b336000908152600160205260409020600401546113ce906003611f6e565b6113d89190611f6e565b6006546007546040516341976e0960e01b81526001600160a01b0391821660048201529116906341976e0990602401602060405180830381865afa158015611424573d6000803e3d6000fd5b505050506040513d601f19601f820116820180604052508101906114489190611fb9565b33600090815260016020526040902054611463906004611f6e565b61146d9190611f6e565b1161161b576006546007546040516341976e0960e01b81526001600160a01b0391821660048201526115f4926115dc9216906341976e0990602401602060405180830381865afa1580156114c5573d6000803e3d6000fd5b505050506040513d601f19601f820116820180604052508101906114e99190611fb9565b33600090815260016020526040902054670de0b6b3a76400009061150e906004611f6e565b6115189190611f12565b6115229190611f6e565b6006546040516341976e0960e01b8152600060048201526001600160a01b03909116906341976e0990602401602060405180830381865afa15801561156b573d6000803e3d6000fd5b505050506040513d601f19601f8201168201806040525081019061158f9190611fb9565b33600090815260016020526040902060040154670de0b6b3a7640000906115b7906003611f6e565b6115c19190611f12565b6115cb9190611f6e565b6115d59190611ee5565b600361181b565b336000908152600160205260409020600401546118a3565b905061161b604051806040016040528060048152602001636675636b60e01b815250611c23565b336000908152600160205260409020600301548411158061163c5750808411155b6116585760405162461bcd60e51b81526004016102e190611f8d565b3360009081526001602052604090206003015484116116cb573360009081526001602052604081206003018054869290611693908490611ee5565b9091555050604051339085156108fc029086906000818181858888f193505050501580156116c5573d6000803e3d6000fd5b50611746565b6116f0604051806040016040528060048152602001636675636b60e01b815250611c23565b3360009081526001602052604081206004018054869290611712908490611ee5565b9091555050604051339085156108fc029086906000818181858888f19350505050158015611744573d6000803e3d6000fd5b505b5050505050565b3360009081526001602052604090206005015481111561177f5760405162461bcd60e51b81526004016102e190611f8d565b33600090815260016020526040812060050180548392906117a1908490611ee5565b909155505060075460405163a9059cbb60e01b8152336004820152602481018390526001600160a01b039091169063a9059cbb906044016020604051808303816000875af11580156117f7573d6000803e3d6000fd5b505050506040513d601f19601f820116820180604052508101906101289190611f4c565b60008160000361182a57600080fd5b60006118368484611c66565b905060016001607f1b036001600160801b038216111561185557600080fd5b90505b92915050565b6107778282604051602401611874929190612038565b60408051601f198184030181529190526020810180516001600160e01b03166309710a9d60e41b179052611dcb565b6000816000036118b557506000611858565b600083600f0b12156118c657600080fd5b600f83900b6001600160801b038316810260401c90608084901c026001600160c01b038111156118f557600080fd5b60401b811981111561190657600080fd5b019392505050565b6001600160a01b038116600090815260016020526040812054810361193557506000919050565b506001600160a01b038116600090815260016020526040812080546002909101549091906119639043611ee5565b6008549091506119809061197a90600f0b836119ad565b836118a3565b6001600160a01b0384166000908152600160205260409020549092506119a69083611ee5565b9392505050565b600080600084600f0b1280156119c65750826001166001145b905060008085600f0b126119da57846119df565b846000035b6001600160801b03169050600160801b680100000000000000008211611a7957603f82901b91505b8415611a71576001851615611a1c578102607f1c5b908002607f1c906002851615611a32578102607f1c5b908002607f1c906004851615611a48578102607f1c5b908002607f1c906008851615611a5e578102607f1c5b60049490941c93908002607f1c90611a07565b60401c611b8f565b603f600160601b831015611a935760209290921b91601f19015b600160701b831015611aab5760109290921b91600f19015b600160781b831015611ac35760089290921b91600719015b6001607c1b831015611adb5760049290921b91600319015b6001607e1b831015611af35760029290921b91600119015b6001607f1b831015611b0b5760019290921b91600019015b60005b8615611b785760408210611b2157600080fd5b6001871615611b4757918302607f1c918101600160801b831115611b4757600192831c92015b928002607f1c9260019190911b90600160801b8410611b6c57600193841c9391909101905b600187901c9650611b0e565b60408110611b8557600080fd5b6040039190911c90505b600083611b9c5781611ba1565b816000035b90506f7fffffffffffffffffffffffffffffff198112801590611bcb575060016001607f1b038113155b611bd457600080fd5b9695505050505050565b6110da81604051602401611bf491815260200190565b60408051601f198184030181529190526020810180516001600160e01b031663f5b1bba960e01b179052611dcb565b6110da81604051602401611c37919061205a565b60408051601f198184030181529190526020810180516001600160e01b031663104c13eb60e21b179052611dcb565b600081600003611c7557600080fd5b60006001600160c01b038411611ca05782604085901b81611c9857611c98611efc565b049050611db7565b60c084811c6401000000008110611cb9576020918201911c5b620100008110611ccb576010918201911c5b6101008110611cdc576008918201911c5b60108110611cec576004918201911c5b60048110611cfc576002918201911c5b60028110611d0b576001820191505b60bf820360018603901c6001018260ff0387901b81611d2c57611d2c611efc565b0492506001600160801b03831115611d4357600080fd5b608085901c83026001600160801b038616840260c088901c604089901b82811015611d6f576001820391505b608084901b92900382811015611d86576001820391505b829003608084901c8214611d9c57611d9c61206d565b888181611dab57611dab611efc565b04870196505050505050505b6001600160801b0381111561185557600080fd5b80516a636f6e736f6c652e6c6f67602083016000808483855afa5050505050565b80356001600160a01b0381168114611e0357600080fd5b919050565b60008060408385031215611e1b57600080fd5b611e2483611dec565b946020939093013593505050565b600080600060608486031215611e4757600080fd5b611e5084611dec565b9250611e5e60208501611dec565b9150604084013590509250925092565b600060208284031215611e8057600080fd5b5035919050565b600060208284031215611e9957600080fd5b6119a682611dec565b602080825260139082015272746f6b656e206164647265737320636865636b60681b604082015260600190565b634e487b7160e01b600052601160045260246000fd5b600082821015611ef757611ef7611ecf565b500390565b634e487b7160e01b600052601260045260246000fd5b600082611f2f57634e487b7160e01b600052601260045260246000fd5b500490565b60008219821115611f4757611f47611ecf565b500190565b600060208284031215611f5e57600080fd5b8151801515811461185557600080fd5b6000816000190483118215151615611f8857611f88611ecf565b500290565b602080825260129082015271616d6f756e742076616c756520636865636b60701b604082015260600190565b600060208284031215611fcb57600080fd5b5051919050565b600060018201611fe457611fe4611ecf565b5060010190565b6000815180845260005b8181101561201157602081850181015186830182015201611ff5565b81811115612023576000602083870101525b50601f01601f19169290920160200192915050565b60408152600061204b6040830185611feb565b90508260208301529392505050565b6020815260006119a66020830184611feb565b634e487b7160e01b600052600160045260246000fdfea26469706673582212201834f5d16394be9424b82b049db6e251b773c6f7944eb3ec1b2ae9faae3013aa64736f6c634300080d0033",
    "linkReferences": {}
  },
  "methodIdentifiers": {
    "block_rate(uint256)": "4983180c",
    "borrow(address,uint256)": "4b8a3529",
    "borrower_list(address)": "fdcedfef",
    "deposit(address,uint256)": "47e7ef24",
    "getAccruedSupplyAmount(address)": "53415e44",
    "initializeLendingProtocol(address)": "8f1e9779",
    "lending_info()": "1cc48d29",
    "liquidate(address,address,uint256)": "26c01303",
    "repay(address,uint256)": "22867d78",
    "update_fee(address)": "55a016dd",
    "update_total_fee()": "c1fdf0aa",
    "withdraw(address,uint256)": "f3fef3a3"
  },
  "id": 15
}